S01A00004D6561737572656D656E745F53797374656D2E73726563A0
S315600000000000012099020000090300000B030000B4
S315600000100D0300000F030000110300000000000044
S315600000200000000000000000000000001142010016
S315600000301503000000000000A1440100F144010026
S315600000401B030000D99F00001F030000210300006E
S3156000005023030000A55700002703000029030000C2
S315600000602B0300002D030000A5280000D128000006
S31560000070330300003503000005410000390300002A
S315600000803B030000314100003F03000041030000D4
S3156000009043030000450300004703000049030000D6
S315600000A04B0300000000000000000000000000009C
S315600000B00000000000000000000000004D0300008A
S315600000C04F03000051030000530300005503000076
S315600000D057030000590300005B0300005D03000046
S315600000E0510A00006103000063030000650300001D
S315600000F067030000690300006B0300006D030000E6
S315600001006F030000710300007303000075030000B5
S3156000011077030000790300007B0300007D03000085
S315600001207F03000081030000830300008503000055
S3156000013087030000890300008B0300008D03000025
S315600001408F030000910300009303000095030000F5
S3156000015097030000990300009B0300009D030000C5
S315600001609F030000A1030000A3030000A503000095
S31560000170A7030000A9030000AB030000AD03000065
S31560000180AF030000B1030000B3030000B503000035
S31560000190B7030000B9030000BB030000BD03000005
S315600001A0BF030000C1030000C3030000C5030000D5
S315600001B0C7030000C9030000CB030000CD030000A5
S315600001C0CF030000D1030000D3030000D503000075
S315600001D0D7030000D9030000DB030000DD03000045
S315600001E0DF030000E1030000E3030000E503000015
S315600001F0E7030000E9030000EB030000ED030000E5
S31560000200EF030000F1030000F3030000F5030000B4
S31560000210F7030000F9030000A57F0000CD7F000012
S31560000220F57F00001D800000458000006D800000A5
S3156000023095800000BD800000E58000000D81000013
S31560000240358100005D81000085810000AD81000080
S31560000250D5810000FD810000258200004D820000EE
S31560000260758200009D820000C5820000ED8200005C
S31560000270158300003D830000658300008D830000C8
S31560000280B5830000DD830000058400002D84000036
S31560000290558400007D8400006848804768480028CF
S315600002A00BD168486849694A884206D091421CBFAA
S315600002B050F8043B41F8043BF8D165486549664A05
S315600002C0884206D091421CBF50F8043B41F8043B7B
S315600002D0F8D162486249634A914218BF41F8040BFB
S315600002E0FAD10000000000000000000000000000DD
S315600002F0DFF874010FF2030E00474FF000004FF075
S315600003000001DFF868F1FEE7FEE7FEE7FEE7FEE7DD
S31560000310FEE7FEE7FEE7FEE7FEE7FEE7FEE7FEE74F
S31560000320FEE7FEE7FEE7FEE7FEE7FEE7FEE7FEE73F
S31560000330FEE7FEE7FEE7FEE7FEE7FEE7FEE7FEE72F
S31560000340FEE7FEE7FEE7FEE7FEE7FEE7FEE7FEE71F
S31560000350FEE7FEE7FEE7FEE7FEE7FEE7FEE7FEE70F
S31560000360FEE7FEE7FEE7FEE7FEE7FEE7FEE7FEE7FF
S31560000370FEE7FEE7FEE7FEE7FEE7FEE7FEE7FEE7EF
S31560000380FEE7FEE7FEE7FEE7FEE7FEE7FEE7FEE7DF
S31560000390FEE7FEE7FEE7FEE7FEE7FEE7FEE7FEE7CF
S315600003A0FEE7FEE7FEE7FEE7FEE7FEE7FEE7FEE7BF
S315600003B0FEE7FEE7FEE7FEE7FEE7FEE7FEE7FEE7AF
S315600003C0FEE7FEE7FEE7FEE7FEE7FEE7FEE7FEE79F
S315600003D0FEE7FEE7FEE7FEE7FEE7FEE7FEE7FEE78F
S315600003E0FEE7FEE7FEE7FEE7FEE7FEE7FEE7FEE77F
S315600003F0FEE7FEE7FEE7FEE7FEE7FEE7FEE7FEE76F
S31560000400FEE7FEE7FEE7FEE7FEE7FEE7FEE7FEE75E
S31560000410FEE7FEE7FEE7FEE7FEE7FEE7FEE7FEE74E
S31560000420FEE7FEE7FEE7FEE7FEE7FEE7FEE7FEE73E
S31560000430FEE7FEE7FEE7FEE7FEE7000015A3000025
S3156000044001000000700400607004000008000020D5
S3156000045088E60260080000202406002000000000F4
S3156000046024060020A8CC0020D5530100090900000D
S3156000047040F22463C2F200031A780AB901201870A8
S31560000480704700BF40F20800C2F2000008B503687A
S315600004902BB140F20003C0F2000303B1984708BDD8
S315600004A080B483B000AF786043F20003C4F2010306
S315600004B07A68C3F8882007F10C07BD4680BC704790
S315600004C080B582B000AF03F083FE4FF000037B601F
S315600004D00AE07B68DBB218464FF0050103F0AEFE1A
S315600004E07B6803F101037B607B68072BF1DD40F2DB
S315600004F02863C2F200034FF0FF321A6040F22863AD
S31560000500C2F200031B681846FFF7CAFF07F1080727
S31560000510BD4680BD80B582B000AF786039607B68CB
S31560000520072B33D813F050FF3B68012B13D17B6840
S315600005304FF0010202FA03F36FEA030240F2286306
S31560000540C2F200031B6802EA030240F22863C2F2A9
S3156000055000031A6010E07B684FF0010202FA03F2B2
S3156000056040F22863C2F200031B6842EA030240F2CB
S315600005702863C2F200031A6040F22863C2F20003E5
S315600005801B681846FFF78CFF13F056FF07F1080744
S31560000590BD4680BD80B586B000AF78603960EFF348
S315600005A011824FF0280383F31188BFF36F8FBFF377
S315600005B04F8F3A61FB603B69BB607B68072B2FD826
S315600005C03B68012B13D17B684FF0010202FA03F3FB
S315600005D06FEA030240F22863C2F200031B6802EA74
S315600005E0030240F22863C2F200031A6010E07B68DF
S315600005F04FF0010202FA03F240F22863C2F20003EE
S315600006001B6842EA030240F22863C2F200031A60E2
S3156000061040F22863C2F200031B681846FFF740FFEA
S31560000620BB687B617B6983F3118807F11807BD4658
S3156000063080BD00BF80B582B000AF78607B68072B55
S315600006403DD813F0C1FE40F22863C2F200031A6877
S315600006507B6822FA03F303F00103DBB2002B13D0AD
S315600006607B684FF0010202FA03F36FEA030240F27D
S315600006702863C2F200031B6802EA030240F22863A1
S31560000680C2F200031A6010E07B684FF0010202FAC2
S3156000069003F240F22863C2F200031B6842EA0302D7
S315600006A040F22863C2F200031A6040F22863C2F285
S315600006B000031B681846FFF7F3FE13F0BDFE07F153
S315600006C00807BD4680BD00BF80B584B000AF7860C6
S315600006D04FF00003FB607B68072B12D813F074FEA3
S315600006E040F22863C2F200031A687B6822FA03F3B9
S315600006F003F00103002B02D14FF00103FB6013F0FE
S315600007009BFEFB68184607F11007BD4680BD00BF1B
S3156000071080B483B000AF0346FB804EF20013CEF286
S315600007200003B7F906204FEA5212F98801F01F015B
S315600007304FF0010000FA01F143F8221007F10C07AF
S31560000740BD4680BC704700BF80B483B000AF03462F
S31560000750FB804EF20013CEF20003B7F906204FEA93
S315600007605212F98801F01F014FF0010000FA01F101
S3156000077002F1200243F8221007F10C07BD4680BC47
S31560000780704700BF80B483B000AF0346FB804EF273
S315600007900013CEF20003B7F906204FEA5212F98829
S315600007A001F01F014FF0010000FA01F102F1600251
S315600007B043F8221007F10C07BD4680BC704700BFA6
S315600007C080B483B000AF03463960FB80B7F906306A
S315600007D0002B10DA4EF60053CEF20003FA8802F0D0
S315600007E00F02A2F104013A68D2B24FEAC202D2B253
S315600007F00B441A760DE04EF20013CEF20003B7F901
S3156000080006103A68D2B24FEAC202D2B20B4483F8FB
S31560000810002307F10C07BD4680BC704780B582B0E7
S3156000082000AF0346FB714FF01400FFF78DFF4FF0EA
S315600008301500FFF789FF42F20003CEF2040342F28D
S315600008400002CEF20402126B22F040021A6345F2F5
S315600008500003C4F200034FF001025A6540F2000340
S31560000860C4F20A234FF00002C3F8002940F20003E5
S31560000870C4F20A234FF00002C3F8082940F20003CD
S31560000880C4F20A23FA79C3F8042945F20003C4F2D4
S3156000089000034FF001021A6145F20003C4F200033F
S315600008A04FF001029A624FF01400FFF76BFF4FF0B2
S315600008B01500FFF767FF07F10807BD4680BD00BF5B
S315600008C080B400AF40F20003C4F20A234FF0010285
S315600008D0C3F80029BD4680BC704700BF80B483B0B2
S315600008E000AF7860396045F20003C4F200037A68AD
S315600008F09A6345F20003C4F200033A68DA6307F1CB
S315600009000C07BD4680BC704780B582B002AF00F070
S315600009100DF94FF001004FF004014FF000020EF0A8
S31560000920B3FD024640F22C63C2F200031A6040F245
S315600009302C63C2F200031B68002B68D04FF00203E1
S3156000094000934FF00003019340F6F520C0F20000DB
S315600009504CF22851C0F201014FF05A024FF00003E9
S315600009600FF06AFF4FF0010300934FF0000301930D
S3156000097040F68920C0F200004CF22C51C0F2010111
S315600009804FF05A024FF000030FF056FF40F6112366
S31560000990C0F2000300934CF23050C0F2010040F602
S315600009A0B8314FF001024FF0000312F035FE0246F7
S315600009B040F23063C2F200031A604FF00203009304
S315600009C04FF00003019341F2F510C0F200004CF2C3
S315600009D03C51C0F201014FF487724FF000030FF0F3
S315600009E02BFF4FF0010300934FF00003019340F695
S315600009F02940C0F200004CF24051C0F201014FF0B4
S31560000A005A024FF000030FF017FF10F085FDFEE766
S31560000A1080B584B002AF786040F23463C2F20003FE
S31560000A201B68002B10D040F23063C2F200031B68D3
S31560000A304FF00002009218464FF004014FF4FA722C
S31560000A404FF0000312F03AFE07F10807BD4680BD7D
S31560000A5080B582B000AF4FF000037B604FF00800B6
S31560000A6003F018FD7B68002B0AD04EF60453CEF2D5
S31560000A7000034FF080521A60BFF34F8FBFF36F8F42
S31560000A8007F10807BD4680BD90B587B002AF7860B4
S31560000A904FF06403BB6040F23063C2F200031C682F
S31560000AA010F090FE03464FF0FF32009220464FF062
S31560000AB001011A464FF0000312F000FE10F082FEAC
S31560000AC00346FB6007F10C0318464FF47A7110F089
S31560000AD0F5F840F22C63C2F200031A6807F10803C6
S31560000AE0104619464FF000024FF000030EF0E0FD8D
S31560000AF0E8E700BF80B584B000AF786000E000BF73
S31560000B0040F22C63C2F200031A6807F10C03104628
S31560000B1019464FF0FF320FF01BF8FB68642BEED1DD
S31560000B204FF00500FFF786FDEAE700BF80B500AF2E
S31560000B3009F0F6FBFFF7C4FC4AF6CC10C2F20000DF
S31560000B404FF461414FF0030201F0A2F908F0F0FBA7
S31560000B504FF028004FF00501FFF732FE4FF02800F6
S31560000B60FFF7D6FD4FF008004FF0620103F066FB19
S31560000B704FF0080003F034FC80BD00BF80B400AFC6
S31560000B80FEE700BF80B485B000AF786039604FF093
S31560000B90280383F31188BFF36F8FBFF34F8FFB601A
S31560000BA0FEE700BF80B582B000AF13F087FA034658
S31560000BB07B607B6807F10807BD4680BD80B400AFE7
S31560000BC040F23463C2F200031B68002B04D14CF27E
S31560000BD04C53C0F2010304E040F23463C2F20003F6
S31560000BE01B681846BD4680BC704700BF80B582B0A2
S31560000BF000AF4FF0FF337B604FF00000FFF70EFE53
S31560000C0078687968FFF76AFEFFF75AFE07F108070A
S31560000C10BD4680BD80B400AF4FF000031846BD46A8
S31560000C2080BC70470000000080B588B000AF786077
S31560000C304CF26C50C0F2010009F0EEFD4CF2A85087
S31560000C40C0F2010009F0E8FD4CF2AC50C0F20100C0
S31560000C5009F0E2FD4CF2E050C0F2010009F0DCFD63
S31560000C604CF21460C0F2010009F0D6FD4AF6CC10D1
S31560000C70C2F2000040F23861C2F200014FF0010298
S31560000C8001F082FB0346DAB240F23963C2F2000336
S31560000C901A7040F23963C2F200031B78002BE5D06C
S31560000CA040F23963C2F200034FF000021A704AF64E
S31560000CB09513C2F200034FF000021A7040F23863D7
S31560000CC0C2F200031B78302B16D14AF69413C2F297
S31560000CD000034FF000021A7007F10C030EA1D1E970
S31560000CE000014FF0060214F00DFB07F10C031846E5
S31560000CF009F092FD00BFA1E74CF21860C0F2010056
S31560000D0009F08AFD4CF22860C0F2010009F084FD0A
S31560000D1094E700BFAFF300806666666666A64B40E2
S31560000D2080B584B000AF02460B46FA71BB80FA7993
S31560000D30BB881046194606F0A9FB0346184614F010
S31560000D403DF903461846084914F040FA034618462A
S31560000D50064914F07DF80346FB60FB68184607F108
S31560000D601007BD4680BD00BF000020410000803FE7
S31560000D7080B582B000AF4FF00203FB70FB78184677
S31560000D8009F000F903463B80FA783B88104619461D
S31560000D9006F0D4FC0346184614F010F903461846CC
S31560000DA0054914F013FA03467B607B68184607F121
S31560000DB00807BD4680BD00BF0000204180B582B0F7
S31560000DC000AF4FF00103FB70FB78184609F0DAF8C4
S31560000DD003463B80FA783B881046194606F056FB78
S31560000DE00346184614F0EAF803461846054914F017
S31560000DF0EDF903467B607B68184607F10807BD4638
S31560000E0080BD00BF00007A4480B582B000AF4FF06D
S31560000E100203FB70FB78184609F0B4F803463B8082
S31560000E20FA783B8810461946FFF77AFF03467B60DF
S31560000E307B68184607F10807BD4680BD80B582B05D
S31560000E4000AF4FF000037B600CE0FFF7DDFF034669
S31560000E503868194613F0FEFF03463B607B6803F172
S31560000E6001037B607A6840F2E7339A42EDDD3868C9
S31560000E70054914F0ABF903463B603B68184607F139
S31560000E800807BD4680BD00BF00007A440000000030
S31560000E90B0B582B000AF4FF00303FB70FB78184625
S31560000EA009F070F803463B80FA783B88104619468D
S31560000EB006F0ECFA0346184614F080F80346184626
S31560000EC0174914F083F903467B607868154914F076
S31560000ED0C9F80346184613F001FD04460D467868C6
S31560000EE013F0FCFC02460B460BA1D1E900011AF097
S31560000EF089F902460B462046294613F043FD024611
S31560000F000B461046194613F04FFF0346184607F185
S31560000F100807BD46B0BD00BF3D0AD7A3703DF03F90
S31560000F2000007A440000F04180B582B000AF4FF017
S31560000F300503FB70FB78184609F024F803463B80EE
S31560000F40FA783B881046194606F0A0FA034618461A
S31560000F5014F034F803461846174914F037F9034677
S31560000F607B60786813F0BAFC02460B461046194659
S31560000F700FA3D3E9002313F005FD02460B46104686
S31560000F8019464FF000024FF0804303F5E01313F06B
S31560000F9045FB02460B461046194613F005FF03460D
S31560000FA0184607F10807BD4680BD00BFAFF3008055
S31560000FB0CDCCCCCCCCCC1C4000007A44AFF30080C6
S31560000FC080B584B000AF7860786813F087FC02461D
S31560000FD00B461DA1D1E9000113F020FB02460B462A
S31560000FE01046194613F0E0FE0346BB60B8687968A0
S31560000FF014F0ECF803461846194914F033F8034622
S31560001000FB60F86813F06AFC02460B461046194608
S315600010100FA3D3E900231AF0F5F802460B461046F3
S3156000102019460DA3D3E9002313F0ACFC02460B4628
S315600010301046194613F0B8FE0346184607F1100726
S31560001040BD4680BDAFF30080666666666666124022
S315600010507B14AE47E17AF6BF00000060C2E06741EC
S3156000106000983747AFF3008080B582B000AF4FF08D
S3156000107000037B600CE000F02BF8034638681946E5
S3156000108013F0E8FE03463B607B6803F101037B6077
S315600010907A6840F2E7339A42EDDD3868054914F024
S315600010A095F803463B603B68184607F10807BD465E
S315600010B080BD00BF00007A4480B500AFFFF7D4FF63
S315600010C003461846FFF77CFF0346184680BD00BFFF
S315600010D080B582B000AF4FF00603FB70FB78184610
S315600010E008F050FF03463B80FA783B881046194665
S315600010F006F0CCF90346184613F060FF034618461F
S31560001100114914F063F80346184613F0E7FB0246EC
S315600011100B46104619460AA3D3E9002313F080FA5A
S3156000112002460B461046194613F03EFE03467B60A8
S315600011307B68184607F10807BD4680BDAFF300809F
S315600011409A9999999999B93F00007A44AFF30080CA
S3156000115080B483B000AF0346FB804EF20013CEF23C
S315600011600003B7F906204FEA5212F98801F01F0111
S315600011704FF0010000FA01F143F8221007F10C0765
S31560001180BD4680BC704700BF80B483B000AF0346E5
S315600011903960FB80B7F90630002B10DA4EF6005343
S315600011A0CEF20003FA8802F00F02A2F104013A6857
S315600011B0D2B24FEAC202D2B20B441A760DE04EF2B8
S315600011C00013CEF20003B7F906103A68D2B24FEABE
S315600011D0C202D2B20B4483F8002307F10C07BD4666
S315600011E080BC704780B500AF10F0ECFA0346184635
S315600011F080BD00BF90B587B000AF78604FF0000348
S31560001200BB604FF000033B6100F0FEF800F006FAA9
S3156000121000E000BF03F0F6FF03467B617B69002BAD
S315600012204FDD40F26C63C2F200031B68002B48D0AE
S315600012307B699AB24AF61043C2F200031A8040F202
S315600012406C63C2F200031B681A7B5B7B4FEA032365
S3156000125043EA02039CB24FF400600CF021FB0346A4
S315600012609C420FD14FF001000AF042FA4AF6104351
S31560001270C2F200031B88002B28D00CF007FF00F099
S31560001280EBF928E040F26C63C2F200031B681A7B3C
S315600012905B7B4FEA032343EA02039CB240F60600F7
S315600012A00CF0FEFA03469C4212D10CF06BFD4AF636
S315600012B01043C2F200031B88002B0BD000F0CCF960
S315600012C009E03B6923F001033B6104E000BF02E0F3
S315600012D000BF00E000BF3B6903F00803002B33D07A
S315600012E03B6923F008033B6140F26C63C2F2000382
S315600012F01B68002B28D04FF00003FB6021E0FB68E1
S315600013004FF0CC0202FB03F24AF62843C2F2000316
S315600013101A444AF62443C2F200031A604FF00200F0
S315600013200AF0E6F94AF61043C2F200031B88002B66
S3156000133003D00CF0ABFE00F08FF9FB6803F10103FC
S31560001340FB60FB68272BDADD3B6903F00403002BA7
S3156000135005D03B6923F004033B610CF061FB3B69FC
S31560001360002B7FF456AF40F24063C2F200031A6866
S3156000137007F10803104619464FF0FF320EF0E8FBFE
S31560001380BB683A6942EA03033B6143E780B483B0D2
S3156000139000AF4FF000033B704FF012037B704FF0CD
S315600013A01303BB704FF01003FB704FF015033B71D6
S315600013B04FF011037B713A7842F64873C2F200032C
S315600013C01A707A7842F64873C2F200035A70BA7895
S315600013D042F64873C2F200039A70FA7842F648738E
S315600013E0C2F20003DA703A7942F64873C2F2000339
S315600013F01A717A7942F64873C2F200035A7107F19C
S315600014000C07BD4680BC704780B588B002AF09F056
S3156000141051FF6FF03F033B716FF057037B714FF0E5
S315600014200003BB716FF03703FB713A794CF6984352
S31560001430C2F200031A707A794CF69843C2F200033E
S315600014405A70BA794CF69843C2F200039A70FA79E8
S315600014504CF69843C2F20003DA704FF0FF333B71EB
S315600014604FF0FF337B714FF0FF33BB714FF00003DA
S31560001470FB713A794CF69443C2F200031A707A799A
S315600014804CF69443C2F200035A70BA794CF6944310
S31560001490C2F200039A70FA794CF69443C2F20003E2
S315600014A0DA70FFF773FF0DF0B5FE4FF00A004FF0EC
S315600014B004014FF000020DF0E7FF024640F2406380
S315600014C0C2F200031A6041F2AD63C0F200030093FA
S315600014D04CF25860C0F2010042F210714FF0010206
S315600014E04FF0000312F098F80346BB6041F2AD631B
S315600014F0C0F2000300934CF26460C0F201004FF446
S31560001500FA714FF001024FF0010312F085F80346BD
S31560001510FB60BB68002B09D14FF0280383F3118869
S31560001520BFF36F8FBFF34F8F3B61FEE7FB68002B06
S3156000153009D14FF0280383F31188BFF36F8FBFF390
S315600015404F8F7B61FEE710F03DF903464FF0FF32A7
S315600015500092B8684FF001011A464FF0000312F08E
S31560001560ADF810F02FF903464FF0FF320092F8689D
S315600015704FF001011A464FF0000312F09FF807F191
S315600015801807BD4680BD00BF80B586B000AF7860E5
S315600015904FF000033B614FF00103FB6040F2406394
S315600015A0C2F200031B68002B09D14FF0280383F3B6
S315600015B01188BFF36F8FBFF34F8F7B61FEE77B6848
S315600015C003F00103DBB2002B01D005F0DDFA7B6886
S315600015D003F00203002B0FD040F24063C2F2000317
S315600015E0196807F10C0207F11003084611461A46FE
S315600015F04FF000030EF074F93B69002B0AD04EF6EB
S315600016000453CEF200034FF080521A60BFF34F8F3F
S31560001610BFF36F8F07F11807BD4680BD80B582B0F6
S3156000162000AF4FF00103FB71FB79184602F09CFF97
S3156000163041F28950C0F2000004F052F94FF0050003
S315600016404FF00501FFF7A0FD4FF00500FFF780FDA5
S3156000165007F10807BD4680BD80B584B000AF4FF086
S315600016600A037B604FF00503FB604FF00003BB602D
S3156000167011E04AF61043C2F200031B88184603F0D5
S31560001680E5FA0346002B0BD1F8680FF09FFBBB68A9
S3156000169003F10103BB60BA687B689A42E9DB00E04C
S315600016A000BF07F11007BD4680BD00BF80B582B0A0
S315600016B000AF7860786812F0ADFB0346002B02D06D
S315600016C0012B11D020E040F24063C2F200031B6898
S315600016D018464CF28C61C0F201014FF000024FF0E7
S315600016E000030DF0E5FF0FE040F24063C2F2000335
S315600016F01B6818464CF29061C0F201014FF000027F
S315600017004FF000030DF0D4FF07F10807BD4680BD1A
S3156000171080B584B000AF786078684CF27461C0F2CE
S31560001720010114F08BFB0346FB60FB68002B39D08C
S3156000173078684FF03F0114F05FF80346FB60FB6882
S31560001740002B23D0F8684CF28461C0F2010114F0DA
S3156000175075FB0346002B0CD04FF003004FF00101E0
S31560001760FEF7D8FE4FF004004FF00101FEF7D2FEFF
S3156000177018E04FF003004FF00001FEF7CBFE4FF08C
S3156000178004004FF00001FEF7C5FE0BE04FF00300CA
S315600017904FF00001FEF7BEFE4FF004004FF000016F
S315600017A0FEF7B8FE07F11007BD4680BD80B485B070
S315600017B000AF786039604FF00103FB734FF00003B0
S315600017C0FB737B684FF000021A854FF002031846E0
S315600017D007F11407BD4680BC704700BF90B585B061
S315600017E000AF786040F21003C2F20003FB6019E0BC
S315600017F0FB681B681C68FB681B681B68184614F04E
S31560001800B9F80346204679681A4614F0E3F80346A9
S31560001810002B03D1FB681B685B680BE0FB6803F178
S315600018200403FB60FB681B68002BE1D141F2AD73DA
S31560001830C0F20003184607F11407BD4690BD00BF0D
S315600018402DE9F0478EB00AAF78607B68FB60FB6875
S31560001850B3F8AC304FF0CC0202FB03F24AF62843F1
S31560001860C2F200031344BB604AF62043C2F200038F
S315600018701B681E46BB689B8818460CF011F8034629
S315600018801D46BB681B8818460CF00AF803464FEAEB
S3156000189013239BB21C46BB681B8818460CF000F8E5
S315600018A0034603F0FF09BB685B8818460BF0F8FF38
S315600018B003464FEA13239BB29A46BB685B88184679
S315600018C00BF0EEFF034603F0FF08BB68DB881846A3
S315600018D00BF0E6FF03469E46BB685B7E03F00F0295
S315600018E040F22403C2F2000353F822C0BB68DB7ED9
S315600018F01846BB689B7E1946BB681B8A002B02D0C4
S315600019004FF02A0201E04FF02002BB685B7E03F0D5
S315600019101003002B02D04FF0210301E04FF02003AB
S31560001920CDF80090CDF804A0CDF80880CDF80CE095
S31560001930CDF810C0059006910792089330464CF298
S31560001940C861C0F201012A46234613F00BFF034625
S315600019509BB2184607F11007BD46BDE8F08700BF89
S3156000196080B584B000AF786039604FF00103FB73D7
S315600019707B681B8D002B02D08B2B1ED03CE07B68D6
S315600019804FF00002A3F8AC2031E07B68B3F8AC30CE
S315600019901A464AF62843C2F200034FF0CC0101FB17
S315600019A002F2134403F118035B7803F00F03002B74
S315600019B014D07B684FF08B021A857B6803F128038D
S315600019C0184641F64101C0F200017A6809F0EEF866
S315600019D00346002B02D14FF0000316E07B68B3F894
S315600019E0AC3003F101039AB27B68A3F8AC207B6844
S315600019F0B3F8AC30272BC8D94FF00003FB737B6874
S31560001A004FF000021A854FF00203184607F11007DF
S31560001A10BD4680BD80B584B000AF78607B68FB60F2
S31560001A204AF62043C2F200031B681A46FB68B3F805
S31560001A30AC304FEA43014CF65C43C2F200030B4400
S31560001A401B8810464CF22871C0F201011A4613F049
S31560001A5089FE03469BB2184607F11007BD4680BD56
S31560001A6080B584B000AF786039604FF00103FB73D6
S31560001A707B681B8D002B02D0A12B0AD028E07B68E7
S31560001A804FF00002A3F8AC201DE07B684FF0A10286
S31560001A901A857B6803F12803184641F61521C0F2C2
S31560001AA000017A6809F082F80346002B02D14FF0F4
S31560001AB0000316E07B68B3F8AC3003F101039AB219
S31560001AC07B68A3F8AC207B68B3F8AC301B2BDCD901
S31560001AD04FF00003FB737B684FF000021A854FF0EE
S31560001AE00203184607F11007BD4680BD80B582B077
S31560001AF000AF78604FF00300FEF7E6FD0346002B6B
S31560001B0009D04AF69C13C2F200034CF23072C0F25E
S31560001B1001021A6008E04AF69C13C2F200034CF216
S31560001B203872C0F201021A604AF62043C2F200031C
S31560001B301B681A464AF69C13C2F200031B681046DD
S31560001B404CF23C71C0F201011A4613F00BFE4AF6E4
S31560001B502043C2F200031B68184613F00BFF0346CE
S31560001B609BB2184607F10807BD4680BD80B584B0B4
S31560001B7000AF786039604FF00103FB737B681B8DA3
S31560001B80002B02D0C82B04D015E07B684FF0C8024A
S31560001B901A857B6803F12803184641F6ED21C0F2E9
S31560001BA000014FF0000209F001F80346002B02D154
S31560001BB04FF0000308E04FF00003FB737B684FF0C3
S31560001BC000021A854FF00203184607F11007BD465A
S31560001BD080BD00BF2DE9B0438AB006AF786039603A
S31560001BE04FF00103FB737B681B8D002B02D0D32B58
S31560001BF02ED045E0FFF722F90346184612F06EFE36
S31560001C0080468946FFF744F90346184612F066FE99
S31560001C1004460D46FFF750FA0346184612F05EFE7C
S31560001C2002460B46CDE90089CDE90245CDE904239C
S31560001C3040F24460C2F200004FF01E014CF2747232
S31560001C40C0F2010213F020FD7B684FF0D3021A85C3
S31560001C507B6803F1280440F24460C2F2000013F08E
S31560001C6089FE0346204640F24461C2F200011A46EC
S31560001C7008F052FF0346002B02D14FF0000308E044
S31560001C804FF00003FB737B684FF000021A854FF03C
S31560001C900203184607F11007BD46BDE8B08300BFD2
S31560001CA080B400AF00BEBD4680BC704780B483B0D0
S31560001CB000AF7860396000BE07F10C07BD4680BC96
S31560001CC0704700BF80B483B000AF78600B46FB708E
S31560001CD000BE07F10C07BD4680BC704780B483B078
S31560001CE000AF786000BE07F10C07BD4680BC704748
S31560001CF080B483B000AF786000BE07F10C07BD46C4
S31560001D0080BC704780B483B000AF786000BE07F1D6
S31560001D100C07BD4680BC7047EFF3108072B6704703
S31560001D2080F310887047000080B487B000AF786099
S31560001D3039607B687B613B683B617B691B78DBB2A2
S31560001D40FB733B69BB60BB6803F10103BB60F0E7F3
S31560001D5001607047006870470EB503FA01F303EA45
S31560001D60020301686FEA020201EA020141EA030125
S31560001D7001600EBD006800EA020020FA01F07047BB
S31560001D8001807047008870470EB503FA01F303EAD5
S31560001D90020301886FEA020201EA020141EA0301D5
S31560001DA001800EBD008800EA020020FA01F070474B
S31560001DB001707047007870470EB503FA01F303EAC5
S31560001DC0020301786FEA020201EA020141EA0301B5
S31560001DD001700EBD007800EA020020FA01F070473B
S31560001DE080B483B000AF0346FB804EF20013CEF2A0
S31560001DF00003B7F906204FEA5212F98801F01F0175
S31560001E004FF0010000FA01F143F8221007F10C07C8
S31560001E10BD4680BC704700BF80B483B000AF034648
S31560001E20FB804EF20013CEF20003B7F906204FEAAC
S31560001E305212F98801F01F014FF0010000FA01F11A
S31560001E4002F1200243F8221007F10C07BD4680BC60
S31560001E50704700BF80B483B000AF0346FB804EF28C
S31560001E600013CEF20003B7F906204FEA5212F98842
S31560001E7001F01F014FF0010000FA01F102F160026A
S31560001E8043F8221007F10C07BD4680BC704700BFBF
S31560001E9080B588B000AFF860B9601346FB714FF04B
S31560001EA00103FB824FF00003BB61FA684AF6CC136C
S31560001EB0C2F200039A4207D0FA684AF6A413C2F245
S31560001EC000039A4200D000BEBB68002B00D100BE62
S31560001ED008F026FAFA684AF6CC13C2F200039A4270
S31560001EE02ED1FB684FF080421A60FB684FF0844247
S31560001EF05A60FB684FF00A021A8140F2F003C2F2A0
S31560001F0000031B68BB6142F20003CEF2040342F297
S31560001F100002CEF20402126B42F080021A634FF0A6
S31560001F200A00FFF797FF42F20003CEF2040342F283
S31560001F300002CEF20402126B22F080021A6331E0D4
S31560001F40FA6840F20003C4F201031360FA6840F2D3
S31560001F500003C4F220235360FB684FF00B021A8122
S31560001F6040F2F403C2F200031B68BB6142F2000355
S31560001F70CEF2040342F20002CEF20402126B42F485
S31560001F8080721A634FF00B00FFF764FF42F20003A2
S31560001F90CEF2040342F20002CEF20402126B22F485
S31560001FA080721A63FB681B684FF000021A71BB6887
S31560001FB0002B21D0BA69BB68B2FBF3F3FB61FB6906
S31560001FC003F00803002B06D0FB694FEA131303F1F5
S31560001FD00103FB6103E0FB694FEA1313FB61FA69D6
S31560001FE04FF6FF739A4200D900BEFA694FF6FF7347
S31560001FF09A4201D8FB69FB82FB685B684FF001027D
S31560002000C3F89C21FB681B68FA8A4FEA122292B2D7
S31560002010D2B21A71FB681B68FA8AD2B21A70FB6870
S315600020205B684FF00002C3F89C21FB681B68FA7975
S315600020301A73FB681B684FF00E021A72FB685B68C6
S315600020404FF00002C3F81022FB684FF000021A61DD
S31560002050FB684FF00002DA60FB684FF000025A61DD
S31560002060FB684FF00002DA61FA6842F28563C0F2FB
S3156000207000031362FB684FF000029A61FB684FF041
S3156000208000025A62FB684FF000029A7207F120075D
S31560002090BD4680BD80B489B000AFF860B9607A6033
S315600020A04FF000033B61FA684AF6CC13C2F20003B4
S315600020B09A4207D0FA684AF6A413C2F200039A421B
S315600020C000D000BEBB68002B00D100BE7B68002B31
S315600020D000D100BEFA684AF6CC13C2F200039A42F7
S315600020E006D0FA684AF6A413C2F200039A423DD1BA
S315600020F0BB68002B3AD07B68002B37D0FB681B6827
S315600021001B7DFB76FB689A7AFB7E42EA0303DAB2B2
S31560002110FB689A72FB7E03F02003002B23D04FF0FE
S315600021201003FB617B680F2B01D87B68FB614FF066
S3156000213000037B610EE0FB681B68B9683A690A4474
S3156000214012781A703B6903F101033B617B6903F105
S3156000215001037B617A69FB699A42ECD37A687B6991
S31560002160C3EB02037B607B68002BC7D107F12407B2
S31560002170BD4680BC704700BF80B487B000AF786052
S3156000218039604FF00003BB607A684AF6CC13C2F23E
S3156000219000039A4207D07A684AF6A413C2F2000393
S315600021A09A4200D000BE3B68002B00D100BE7A6820
S315600021B04AF6CC13C2F200039A4206D07A684AF60F
S315600021C0A413C2F200039A4238D13B68002B35D083
S315600021D03A68BB6813441B783B612CE07B681B68DC
S315600021E01B7DFB757B689A7AFB7D42EA0303DAB254
S315600021F07B689A72FB7D03F02003002BEED04FF0D4
S315600022000003FB6011E07B681B683A69D2B21A7002
S31560002210FB6803F10103FB60BB6803F10103BB606C
S315600022203A68BB6813441B783B613B69002B02D05C
S31560002230FB680F2BE7D93B69002BCFD107F11C0751
S31560002240BD4680BC704700BF80B584B000AFF86003
S31560002250B9607A60FA684AF6CC13C2F200039A4211
S3156000226007D0FA684AF6A413C2F200039A4200D075
S3156000227000BEBB68002B00D100BE7B68002B00D17E
S3156000228000BE7B68002B32D0BB68002B2FD0FA686B
S315600022904AF6CC13C2F200039A4206D0FA684AF6AE
S315600022A0A413C2F200039A4221D1FB68BA68DA60CD
S315600022B0FB687A681A61FB684FF000025A61FB6836
S315600022C01B891BB21846FFF7C5FDFA6842F28563A3
S315600022D0C0F200031362FB685B684FF00102C3F84B
S315600022E08420FB681B891BB21846FFF779FD07F14E
S315600022F01007BD4680BD00BF80B485B000AF786072
S315600023004FF00003BB734FF00003FB737A684AF625
S31560002310CC13C2F200039A4207D07A684AF6A41335
S31560002320C2F200039A4200D000BE7A684AF6CC1325
S31560002330C2F200039A4206D07A684AF6A413C2F241
S3156000234000039A4217D17B681B681B7DFB737B6811
S315600023509A7AFB7B42EA0303DAB27B689A727B68FD
S315600023601B69002B07D1FB7B03F04003002B02D0D7
S315600023704FF00103BB73BB7B5BB2184607F11407D2
S31560002380BD4680BC704700BF80B487B000AFF860C0
S31560002390B9607A604FF000033B614FF00003FB7554
S315600023A0FA684AF6CC13C2F200039A4207D0FA687A
S315600023B04AF6A413C2F200039A4200D000BEBB687C
S315600023C0002B00D100BE7B68002B00D100BEFA68EE
S315600023D04AF6CC13C2F200039A4206D0FA684AF66D
S315600023E0A413C2F200039A4234D1BB68002B31D0E9
S315600023F07B68002B2ED0FB681B681B7DFB75FB681A
S315600024009A7AFB7D42EA0303DAB2FB689A7217E0B6
S31560002410BA683B691344FA6812681278D2B21A70C5
S315600024203B6903F101033B61FB681B681B7DFB7520
S31560002430FB689A7AFB7D42EA0303DAB2FB689A721A
S31560002440FB7D03F00103DBB2002B03D03A697B68A6
S315600024509A42DDD33B69184607F11C07BD4680BC2E
S31560002460704700BF80B582B000AF78600B46FB70E6
S315600024707A684AF6CC13C2F200039A4207D07A68A9
S315600024804AF6A413C2F200039A4200D000BE7A68EC
S315600024904AF6CC13C2F200039A4206D07A684AF62C
S315600024A0A413C2F200039A4216D17B681B891BB241
S315600024B01846FFF7CFFC7B681B687A68126812794A
S315600024C0D1B2FA7841EA0202D2B21A717B681B89EC
S315600024D01BB21846FFF784FC07F10807BD4680BDAE
S315600024E080B582B000AF78600B46FB707A684AF6BA
S315600024F0CC13C2F200039A4207D07A684AF6A41354
S31560002500C2F200039A4200D000BE7A684AF6CC1343
S31560002510C2F200039A4206D07A684AF6A413C2F25F
S3156000252000039A421CD17B681B687A68126812792C
S31560002530D1B2FA786FEA0202D2B201EA0202D2B2EC
S315600025401A717B681B891BB21846FFF783FCFB7800
S315600025500F2B05D17B681B891BB21846FFF75CFC05
S3156000256007F10807BD4680BD80B584B000AF7860CE
S315600025707A684AF6CC13C2F200039A4207D07A68A8
S315600025804AF6A413C2F200039A4200D000BE7A68EB
S315600025904AF6CC13C2F200039A4206D07A684AF62B
S315600025A0A413C2F200039A4267D17B681B681B7A48
S315600025B0DBB203F00F03FB73FB7B0C2B54D801A239
S315600025C052F823F0F9250000692600001526000060
S315600025D06926000031260000692600004D260000AD
S315600025E06926000069260000692600006926000049
S315600025F069260000312600007B685B6A002B00D1EB
S3156000260000BE7B685B6A002B30D07B685B6A78684B
S31560002610984732E07B681B6A002B00D100BE7B685E
S315600026201B6A002B24D07B681B6A7868984724E075
S315600026307B68DB69002B00D100BE7B68DB69002B01
S3156000264018D07B68DB697868984716E07B689B6979
S31560002650002B00D100BE7B689B69002B0CD07B6889
S315600026609B697868984708E000BE06E000BF04E012
S3156000267000BF02E000BF00E000BF07F11007BD46E3
S3156000268080BD00BF80B487B000AF78607A684AF6D4
S31560002690CC13C2F200039A4207D07A684AF6A413B2
S315600026A0C2F200039A4200D000BE7B68DB68002B52
S315600026B000D100BE7B681B69002B00D100BE7A6822
S315600026C04AF6CC13C2F200039A4206D07A684AF6FA
S315600026D0A413C2F200039A4252D17B68DB68002BD6
S315600026E04ED07B681B69002B4AD07B681B681B7DBC
S315600026F0FB727B689A7AFB7A42EA0303DAB27B68FA
S315600027009A72FB7A03F02003002B29D04FF0100356
S315600027103B617B681A697B685B69C3EB02037B611B
S315600027207B690F2B01D87B693B614FF00003FB602F
S3156000273012E07B681B687A68D1687A6852690A44D5
S3156000274012781A707B685B6903F101027B685A61D3
S31560002750FB6803F10103FB60FA683B699A42E8D3C0
S315600027607B685A697B681B699A4209D17B684FF01E
S3156000277000021A617B685B684FF00002C3F8842030
S3156000278007F11C07BD4680BC704700BF80B584B0AA
S3156000279000AFF860B9601346FB71FA684AF6CC136D
S315600027A0C2F200039A4207D0FA684AF6A413C2F24C
S315600027B000039A4200D000BEBB68002B00D100BE69
S315600027C0FB79C02B00D900BEFA684AF6CC13C2F278
S315600027D000039A4206D0FA684AF6A413C2F20003CE
S315600027E09A4223D1BB68002B20D0FB79C02B1DD821
S315600027F0FB68BA68DA61FB681A68FB7903F0C003A4
S3156000280043F00A03DBB21372FB681B891BB21846DE
S31560002810FFF720FBFB685B684FF00102C3F880207E
S31560002820FB681B891BB21846FFF7DAFA07F1100737
S31560002830BD4680BD80B483B000AF78600B46FB7048
S315600028407A684AF6CC13C2F200039A4207D07A68D5
S315600028504AF6A413C2F200039A4200D000BE7A6818
S315600028604AF6CC13C2F200039A4206D07A684AF658
S31560002870A413C2F200039A420FD1FB78002B06D153
S315600028807B685B684FF00002C3F8102205E07B6846
S315600028905B684FF00102C3F8102207F10C07BD46D2
S315600028A080BC7047684620F007018D4689B500AF49
S315600028B04AF6CC10C2F20000FFF756FE4FF00A004F
S315600028C0FFF7C8FABD46BDE889408546704700BF38
S315600028D0684620F007018D4689B500AF4AF6A41018
S315600028E0C2F20000FFF740FE4FF00B00FFF7B2FAAE
S315600028F0BD46BDE889408546704700BF80B582B059
S3156000290000AF786039607A684AF6CC13C2F2000389
S315600029109A4207D07A684AF6A413C2F200039A4232
S3156000292000D000BE3B68002B00D100BE7A684AF634
S31560002930CC13C2F200039A4206D07A684AF6A41310
S31560002940C2F200039A4217D13B68002B14D07B6811
S315600029503A689A617B681B891BB21846FFF77AFA58
S315600029607B685B684FF00102C3F888207B681B892F
S315600029701BB21846FFF734FA07F10807BD4680BD5B
S3156000298080B582B000AF786039607A684AF6CC1359
S31560002990C2F200039A4207D07A684AF6A413C2F2DA
S315600029A000039A4200D000BE3B68002B00D100BEF7
S315600029B07A684AF6CC13C2F200039A4206D07A6865
S315600029C04AF6A413C2F200039A421FD13B68002B59
S315600029D01CD07B683A681A627B684FF00002DA6046
S315600029E07B684FF000021A617B681B891BB2184630
S315600029F0FFF730FA7B685B684FF00102C3F884200A
S31560002A007B681B891BB21846FFF7EAF907F10807CE
S31560002A10BD4680BD80B582B000AF786039607A68A7
S31560002A204AF6CC13C2F200039A4207D07A684AF695
S31560002A30A413C2F200039A4200D000BE3B68002B8A
S31560002A4000D100BE7A684AF6CC13C2F200039A42FD
S31560002A5006D07A684AF6A413C2F200039A4217D1E6
S31560002A603B68002B14D07B683A685A627B681B8986
S31560002A701BB21846FFF7EEF97B685B684FF0010200
S31560002A80C3F88C207B681B891BB21846FFF7A8F930
S31560002A9007F10807BD4680BD80B489B000AFF86015
S31560002AA0B9607A604FF00003FB754FF00003BB61BD
S31560002AB0FA684AF6CC13C2F200039A4207D0FA6863
S31560002AC04AF6A413C2F200039A4200D000BEBB6865
S31560002AD0002B00D100BE7B68002B00D100BEFA68D7
S31560002AE04AF6CC13C2F200039A4206D0FA684AF656
S31560002AF0A413C2F200039A4231D1BB68002B2ED0D8
S31560002B007B68002B2BD0FB681B681B7DFB75FB6805
S31560002B109A7AFB7D42EA0303DAB2FB689A72FB7D1E
S31560002B2003F02003002B1AD04FF01003FB617B6883
S31560002B300F2B01D87B68FB614FF00003BB610AE095
S31560002B40FB681B68B968BA690A4412781A70BB696F
S31560002B5003F10103BB61BA69FB699A42F0D3BB69B1
S31560002B60184607F12407BD4680BC704780B485B01F
S31560002B7000AF78604FF0FF33FB737A684AF6CC1388
S31560002B80C2F200039A4207D07A684AF6A413C2F2E8
S31560002B9000039A4200D000BE7A684AF6CC13C2F2AD
S31560002BA000039A4206D07A684AF6A413C2F200037A
S31560002BB09A4213D17B689A7A7B681B681B7DDBB26D
S31560002BC042EA0303DAB27B689A727B689B7A23F0E7
S31560002BD06103FB737B684FF000029A72FB7B1846B9
S31560002BE007F11407BD4680BC704700BF80B485B04E
S31560002BF000AF78604FF0FF33FB737A684AF6CC1308
S31560002C00C2F200039A4207D07A684AF6A413C2F267
S31560002C1000039A4200D000BE7A684AF6CC13C2F22C
S31560002C2000039A4206D07A684AF6A413C2F20003F9
S31560002C309A4203D17B681B681B7EFB73FB7B18463D
S31560002C4007F11407BD4680BC704700BF80B485B0ED
S31560002C5000AF78604FF00003FB737A684AF6CC13D6
S31560002C60C2F200039A4207D07A684AF6A413C2F207
S31560002C7000039A4200D000BE7A684AF6CC13C2F2CC
S31560002C8000039A4206D07A684AF6A413C2F2000399
S31560002C909A420FD17B681B681B7DFB737B689A7AAF
S31560002CA0FB7B42EA0303DAB27B689A72FB7B03F032
S31560002CB06003FB73FB7B184607F11407BD4680BCB7
S31560002CC0704700BF80B483B000AF0346FB804EF20E
S31560002CD00013CEF20003B7F906204FEA5212F988C4
S31560002CE001F01F014FF0010000FA01F143F82210D4
S31560002CF007F10C07BD4680BC704700BF80B483B047
S31560002D0000AF0346FB804EF20013CEF20003B7F924
S31560002D1006204FEA5212F98801F01F014FF00100B8
S31560002D2000FA01F102F1200243F8221007F10C07C4
S31560002D30BD4680BC704700BF80B483B000AF034619
S31560002D40FB804EF20013CEF20003B7F906204FEA7D
S31560002D505212F98801F01F014FF0010000FA01F1EB
S31560002D6002F1600243F8221007F10C07BD4680BCF1
S31560002D70704700BF80B584B000AF786013460A46DE
S31560002D80FA70BB70BB78FB607A684AF6F413C2F2DD
S31560002D9000039A4207D07A684AF66823C2F20003B3
S31560002DA09A4200D000BE01F08FF90346BB60786896
S31560002DB04FF000014FF0740212F0FCFB7A684AF69D
S31560002DC0F413C2F200039A422CD17B684FF00E02D4
S31560002DD05A827A6842F20003C4F2000353617A6849
S31560002DE040F20003C4F20423936142F20003CEF280
S31560002DF0040342F20002CEF20402126B42F4006255
S31560002E001A634FF00E00FFF797FF42F20003CEF20F
S31560002E10040342F20002CEF20402126B22F4006254
S31560002E201A632BE07B684FF011025A827A6842F28D
S31560002E300003C4F2010353617A6840F20003C4F2EE
S31560002E402423936142F20003CEF2040342F20002AD
S31560002E50CEF20402126B42F480521A634FF01100F4
S31560002E60FFF76AFF42F20003CEF2040342F2000269
S31560002E70CEF20402126B22F480521A637B689B695D
S31560002E801A467B68DA61FB784FEA43027B681A6010
S31560002E907B689B69FA684FEA920202F00102DA6186
S31560002EA07B689B69FA684FEA520202F001025A6037
S31560002EB07B689B69FA6802F001021A607B685B694D
S31560002EC07A681268D2B21A737B689B694FF0010206
S31560002ED09A61B86801F00AF907F11007BD4680BD2E
S31560002EE080B586B000AFF8607A600A46FA727B8079
S31560002EF0FA684AF6F413C2F200039A4207D0FA68F7
S31560002F004AF66823C2F200039A4200D000BE01F07E
S31560002F10DBF803467B61FB681B7A002B03D1FB68F9
S31560002F204FF001021A72FB684FF0010283F87220BB
S31560002F30FB7A4FEA4302FB685A60FB684FF0000277
S31560002F40DA62FB687A681A627A88FB685A62FB689A
S31560002F504FF000029A62FB684FF0010283F83C2052
S31560002F60FB6897F820201A74FB6893F85C30DBB234
S31560002F70012B05D1FB684FF0010283F8712004E054
S31560002F80FB689B694FF001025A61FB6893F87030E9
S31560002F90012B11D1FB689B694FF00002DA60FB6878
S31560002FA05B691B79FB74FB7CDBB2FB74FB685B8A39
S31560002FB01BB21846FFF7C0FEFB685B8A1BB2184659
S31560002FC0FFF780FE786901F091F807F11807BD46B2
S31560002FD080BD00BF80B586B000AFF8607A600A46F3
S31560002FE0FA727B80FA684AF6F413C2F200039A42D8
S31560002FF007D0FA684AF66823C2F200039A4200D004
S3156000300000BE01F061F803467B61FB681B7A002B0A
S3156000301003D1FB684FF002021A72FB684FF002029E
S3156000302083F87220FB7A4FEA4302FB685A60FB68BA
S315600030304FF00102DA62FB687A681A637A88FB6885
S315600030405A63FB684FF000029A63FB684FF0010217
S3156000305083F83C20FB6897F820201A74FB6893F885
S315600030605C30DBB2012B05D1FB684FF0010283F8BF
S31560003070712004E0FB689B694FF001025A61FB68AE
S3156000308093F87030012B11D1FB689B694FF00002F9
S31560003090DA60FB685B691B79FB74FB7CDBB2FB74F3
S315600030A0FB685B8A1BB21846FFF746FEFB685B8AC5
S315600030B01BB21846FFF706FE786901F017F807F1AC
S315600030C01807BD4680BD00BF80B586B000AFF8600A
S315600030D07A600A46FA727B80FA684AF6F413C2F29C
S315600030E000039A4207D0FA684AF66823C2F20003E0
S315600030F09A4200D000BE7B88002B00D100BE7B6860
S31560003100002B00D100BEBB8C002B00D100BE3B6AF9
S31560003110002B00D100BEBB8C002B6AD07B88002BB5
S3156000312067D000F0D1FF03467B61FB681B7A002BFA
S3156000313003D1FB684FF003021A72FB684FF003027B
S3156000314083F87220FB7A4FEA4302FB685A60FB6899
S315600031504FF00002DA62FB687A681A627A88FB6866
S315600031605A62FB684FF000029A62FB683A6A1A6319
S31560003170BA8CFB685A63FB684FF000029A63FB687F
S315600031804FF0010283F83C20FB6897F828201A74F8
S31560003190FB6893F85C30DBB2012B05D1FB684FF01E
S315600031A0010283F8712004E0FB689B694FF001021D
S315600031B05A61FB6893F87030012B11D1FB689B69EB
S315600031C04FF00002DA60FB685B691B79FB74FB7C7D
S315600031D0DBB2FB74FB685B8A1BB21846FFF7ACFD7B
S315600031E0FB685B8A1BB21846FFF76CFD786900F0D6
S315600031F07DFF07F11807BD4680BD00BF80B485B06E
S3156000320000AF78607A684AF6F413C2F200039A4215
S3156000321007D07A684AF66823C2F200039A4200D061
S3156000322000BE7B6893F83C30FB73FB7B184607F166
S315600032301407BD4680BC704780B485B000AF786027
S3156000324039607A684AF6F413C2F200039A4207D0EC
S315600032507A684AF66823C2F200039A4200D000BE3A
S315600032607B683A681A647B6893F83C30FB73FB7B37
S31560003270012BF8D0FB7B184607F11407BD4680BCCE
S31560003280704700BF80B483B000AF786039607B68F8
S315600032901B6C002B1ED07B681A6C3B689A4207D960
S315600032A07B681A6C3B68C3EB02027B681A6411E0A8
S315600032B07B684FF0030283F83C207B684FF0000286
S315600032C01A727B684FF0000283F871207B684FF0BA
S315600032D000021A6407F10C07BD4680BC704700BF48
S315600032E080B586B000AFF860B9601346FB80FA68B7
S315600032F04AF6F413C2F200039A4207D0FA684AF615
S315600033006823C2F200039A4200D000BE00F0DCFEE1
S3156000331003467B61FB68BA685A64FA88FB689A64FC
S31560003320FB684FF00002DA64786900F0DFFE07F1AF
S315600033301807BD4680BD00BF80B586B000AFF86097
S31560003340B9601346FB80FA684AF6F413C2F20003CA
S315600033509A4207D0FA684AF66823C2F200039A4294
S3156000336000D000BE00F0B0FE03467B61FB68BA6821
S315600033701A65FA88FB685A65FB684FF000029A6521
S31560003380786900F0B3FE07F11807BD4680BD00BF3F
S3156000339080B483B000AF78600B46FB707A684AF6FB
S315600033A0F413C2F200039A4207D07A684AF6682399
S315600033B0C2F200039A4200D000BEFB78022B00D90D
S315600033C000BEFB78022B04D97B684FF002021A66B6
S315600033D002E0FA787B681A6607F10C07BD4680BC86
S315600033E0704700BF80B483B000AF786039607A6898
S315600033F04AF6F413C2F200039A4207D07A684AF694
S315600034006823C2F200039A4200D000BE7B683A6825
S315600034105A6607F10C07BD4680BC704780B584B01C
S3156000342000AF78607A684AF6F413C2F200039A42F3
S3156000343007D07A684AF66823C2F200039A4200D03F
S3156000344000BE00F041FE0346FB607B689B694FF05F
S3156000345001029A607B684FF0010283F86820F86881
S3156000346000F044FE7B685B8A1BB21846FFF72AFCB5
S3156000347007F11007BD4680BD80B584B000AF7860A7
S315600034807A684AF6F413C2F200039A4207D07A6861
S315600034904AF66823C2F200039A4200D000BE00F0EA
S315600034A013FE0346FB607B689B694FF000029A60DF
S315600034B07B684FF0000283F86820F86800F016FE1B
S315600034C007F11007BD4680BD80B483B000AF786059
S315600034D07B6893F86830002B04D07B689B694FF05B
S315600034E001029A6007F10C07BD4680BC704700BFB9
S315600034F080B584B000AF78604FF00103BB737A6823
S315600035004AF6F413C2F200039A4207D07A684AF682
S315600035106823C2F200039A4200D000BE7B685B69F2
S315600035201B79FB72FB7ADBB2A3F10803D02B00F2A6
S315600035301C8401A252F823F07D3800006B3D000028
S315600035406B3D00006B3D00006B3D00006B3D000075
S315600035506B3D00006B3D00007D3800006B3D000058
S315600035606B3D00006B3D00006B3D00006B3D000055
S315600035706B3D00006B3D0000213900006B3D000093
S315600035806B3D00006B3D00006B3D00006B3D000035
S315600035906B3D00006B3D0000FD3800006B3D000098
S315600035A06B3D00006B3D00006B3D00006B3D000015
S315600035B06B3D00006B3D0000213900006B3D000053
S315600035C06B3D00006B3D00006B3D00006B3D0000F5
S315600035D06B3D00006B3D0000B53900006B3D00009F
S315600035E06B3D00006B3D00006B3D00006B3D0000D5
S315600035F06B3D00006B3D0000F13800006B3D000044
S315600036006B3D00006B3D00006B3D00006B3D0000B4
S315600036106B3D00006B3D0000D93900006B3D00003A
S315600036206B3D00006B3D00006B3D00006B3D000094
S315600036306B3D00006B3D0000293A00006B3D0000C9
S315600036406B3D00006B3D00006B3D00006B3D000074
S315600036506B3D00006B3D00004D3A00006B3D000085
S315600036606B3D00006B3D00006B3D00006B3D000054
S315600036706B3D00006B3D0000873A00006B3D00002B
S315600036806B3D00006B3D00006B3D00006B3D000034
S315600036906B3D00006B3D0000293B00006B3D000068
S315600036A06B3D00006B3D00006B3D00006B3D000014
S315600036B06B3D00006B3D00001F3B00006B3D000052
S315600036C06B3D00006B3D00006B3D00006B3D0000F4
S315600036D06B3D00006B3D0000293B00006B3D000028
S315600036E06B3D00006B3D00006B3D00006B3D0000D4
S315600036F06B3D00006B3D00001F3B00006B3D000012
S315600037006B3D00006B3D00006B3D00006B3D0000B3
S315600037106B3D00006B3D00006B3B00006B3D0000A5
S315600037206B3D00006B3D00006B3D00006B3D000093
S315600037306B3D00006B3D0000EB3A00006B3D000006
S315600037406B3D00006B3D00006B3D00006B3D000073
S315600037506B3D00006B3D00006B3B00006B3D000065
S315600037606B3D00006B3D00006B3D00006B3D000053
S315600037706B3D00006B3D0000EB3A00006B3D0000C6
S315600037806B3D00006B3D00006B3D00006B3D000033
S315600037906B3D00006B3D0000C73B00006B3D0000C9
S315600037A06B3D00006B3D00006B3D00006B3D000013
S315600037B06B3D00006B3D00009F3C00006B3D0000D0
S315600037C06B3D00006B3D00006B3D00006B3D0000F3
S315600037D06B3D00006B3D00009F3C00006B3D0000B0
S315600037E06B3D00006B3D00006B3D00006B3D0000D3
S315600037F06B3D00006B3D00009F3C00006B3D000090
S315600038006B3D00006B3D00006B3D00006B3D0000B2
S315600038106B3D00006B3D0000313D00006B3D0000DC
S315600038206B3D00006B3D00006B3D00006B3D000092
S315600038306B3D00006B3D0000313D00006B3D0000BC
S315600038406B3D00006B3D00006B3D00006B3D000072
S315600038506B3D00006B3D00006B3D00006B3D000062
S315600038606B3D00006B3D00006B3D00006B3D000052
S315600038706B3D00006B3D0000713C00007B689B69FE
S315600038804FF000025A617B685B697A685268D2B20F
S315600038901A727B689B697A68D26AC3F800217B6872
S315600038A0DB6A002B04D17B684FF000029A6207E066
S315600038B07B68DB6A012B03D17B684FF000029A6359
S315600038C07B6893F87130002B04D07B684FF0000260
S315600038D083F871207B681A7A7B6893F872309A4213
S315600038E000F067827B6893F872207B681A7269E2DF
S315600038F07B689B694FF001025A6163E27B689B6952
S315600039004FF001021A617B684FF0020283F83C2097
S315600039107B684FF000021A727868FFF7D5FD51E2B6
S315600039207B689A6A7B685B6A9A420DD27B685A6941
S315600039307B68196A7B689B6A19440978117203F17E
S3156000394001027B689A623DE27B681B7A032B09D190
S315600039507B684FF00102DA627B689B694FF0010277
S315600039605A612FE27B684FF000021A727B681B7CFB
S3156000397003F001037B737B687A7B83F870207B7B23
S31560003980002B08D17B689B694FF001021A61786849
S31560003990FFF79AFD08E07B685B8A1BB21846FFF763
S315600039A0ADF94FF00003BB737B684FF0000283F8FC
S315600039B03C2007E27B689B694FF001021A617B68D5
S315600039C04FF0020283F83C207B684FF000021A72C7
S315600039D07868FFF779FDF5E17B685B6B012B05D9AC
S315600039E07B689B694FF001029A60EBE17B685B6BD9
S315600039F0012B05D17B689B694FF000029A60E1E17B
S31560003A007B689B694FF001029A607B689B694FF007
S31560003A1001021A617B684FF0000283F83C207B68E4
S31560003A204FF000021A72CDE17B689B694FF001028C
S31560003A301A617B684FF0020283F83C207B684FF086
S31560003A4000021A727868FFF73FFDBBE17B681A6B6C
S31560003A507B689B6B1A4479684969097AC9B21170A7
S31560003A6003F101027B689A637B689A6B7B685B6B88
S31560003A7003F1FF339A42C0F09E817B689B694FF0E9
S31560003A8000029A609EE17B681A6B7B689B6B1344AD
S31560003A907A685269127AD2B21A707B681B7C03F01C
S31560003AA001037B737B687A7B83F870207B7B002BBA
S31560003AB008D17B689B694FF001021A617868FFF74D
S31560003AC003FD08E07B685B8A1BB21846FFF716F9B0
S31560003AD04FF00003BB737B684FF000021A727B687D
S31560003AE04FF0000283F83C206CE17B689B694FF0E5
S31560003AF001029A607B684FF000021A727B684FF091
S31560003B00000283F85C207B6893F87130002B00F02C
S31560003B1054817B689B694FF001025A6152E17B6870
S31560003B204FF0010283F871207B684FF004021A722D
S31560003B307B684FF000029A657B684FF00002DA609E
S31560003B407B689B695B69002B09D07B689B694FF03A
S31560003B5000025A617B684FF0010283F871207B682E
S31560003B604FF0010283F85C202CE17B681B6D002B13
S31560003B701CD07B689A6D7B685B6D9A4216D27B68B7
S31560003B805B691B7A3B737B681A6D7B689B6D1A4415
S31560003B90397B117003F101027B689A657B68DB688B
S31560003BA04FEA03223B7B1A447B68DA607B689A6D36
S31560003BB07B685B6D9A42C0F002817B689B694FF0BF
S31560003BC000029A60FEE07B681B7A042B35D17B6825
S31560003BD09A6D7B681B6E9A4203D17B68DA687B6854
S31560003BE0DA647B685B6E002B21D07B685B6E7A68DB
S31560003BF0116D7A68926D92B2786898470346FB7346
S31560003C00FB7B002B08D17868FFF75EFC7B689B69BD
S31560003C104FF001029A6017E07B689B694FF00002E3
S31560003C209A607B684FF0000283F868200CE07B683E
S31560003C309B694FF001029A6006E07B684FF00002D4
S31560003C40DA647868FFF740FC7B684FF0000283F81F
S31560003C505C207B6893F87130002B04D07B689B698D
S31560003C604FF001025A617B684FF000021A72A9E0B8
S31560003C707B684FF000021A727B684FF00002DA64CC
S31560003C807B6893F85C30DBB2012B04D17B684FF024
S31560003C90020283F85C207868FFF716FC92E0FB7AF4
S31560003CA0DBB2A82B1BD17B684FF005021A727B68CA
S31560003CB04FF00002DA607B684FF0010283F85C2007
S31560003CC07B689B695B69002B09D07B689B694FF0B9
S31560003CD000025A617B684FF0010283F871207B68AD
S31560003CE0DA6C7B689B6C9A4205D37B685B694FF0A4
S31560003CF0FF321A720CE07B685A697B68596C7B6884
S31560003D00DB6C19440978117203F101027B68DA648D
S31560003D107B68DA6C7B689B6C9A4252D37B689B6942
S31560003D204FF000029A607B684FF00002DA6449E067
S31560003D307B684FF00002DA647B689B694FF0010292
S31560003D409A607B684FF0000283F85C207B6893F88A
S31560003D507130002B04D07B689B694FF001025A6179
S31560003D607B684FF000021A722CE07B689B694FF00B
S31560003D7000025A617B684FF000021A727B684FF04E
S31560003D800002DA647B6893F83C30DBB2012B04D125
S31560003D907B684FF0020283F83C207B6893F85C30C6
S31560003DA0DBB2012B0ED17B684FF0020283F85C20F8
S31560003DB008E000BF06E000BF04E000BF02E000BF0D
S31560003DC000E000BFBB7B002B04D07B689B694FF093
S31560003DD00002DA607B685B691B79FB7207F110078A
S31560003DE0BD4680BD80B483B000AF78600B46FB7083
S31560003DF07B685B69FA781A757B685B694FF0540279
S31560003E001A7407F10C07BD4680BC704780B582B056
S31560003E1000AF78600B46FB707A684AF6F413C2F21C
S31560003E2000039A4207D07A684AF66823C2F2000312
S31560003E309A4200D000BE7A684AF6F413C2F20003D2
S31560003E409A4227D1FB7803F00103DBB2002B0DD039
S31560003E504FF00F00FEF770FF7B68DB694FF00102E1
S31560003E60C3F800224FF00F00FEF72CFFFB7803F03B
S31560003E700203002B36D04FF01000FEF75DFF7B6823
S31560003E80DB694FF00102C3F804224FF01000FEF721
S31560003E9019FF28E0FB7803F00103DBB2002B0DD09D
S31560003EA04FF01200FEF748FF7B68DB694FF00102B6
S31560003EB0C3F800224FF01200FEF704FFFB7803F010
S31560003EC00203002B0FD04FF01300FEF735FF7B681F
S31560003ED0DB694FF00102C3F804224FF01300FEF7CE
S31560003EE0F1FE00E000BF07F10807BD4680BD00BFD8
S31560003EF080B582B000AF78600B46FB707A684AF690
S31560003F00F413C2F200039A4207D07A684AF668232D
S31560003F10C2F200039A4200D000BE7A684AF6F413F1
S31560003F20C2F200039A421FD1FB7803F00103DBB2B1
S31560003F30002B09D07B68DB694FF00002C3F80022D2
S31560003F404FF00F00FEF7DAFEFB7803F00203002B5A
S31560003F502AD07B68DB694FF00002C3F804224FF079
S31560003F601000FEF7CBFE20E0FB7803F00103DBB226
S31560003F70002B09D07B68DB694FF00002C3F8002292
S31560003F804FF01200FEF7BAFEFB7803F00203002B37
S31560003F900BD07B68DB694FF00002C3F804224FF058
S31560003FA01300FEF7ABFE00E000BF07F10807BD4651
S31560003FB080BD00BF80B483B000AF78607B68DB698A
S31560003FC04FF00002C3F8182207F10C07BD4680BC0B
S31560003FD0704700BF80B483B000AF78607B68DB69F0
S31560003FE04FF00102C3F8182207F10C07BD4680BCEA
S31560003FF0704700BF80B483B000AF78607B68DB69D0
S315600040004FF00102C3F81C2207F10C07BD4680BCC5
S31560004010704700BF80B483B000AF78607B68DB69AF
S315600040204FF00002C3F8102207F10C07BD4680BCB2
S31560004030704700BF80B483B000AF78607B68DB698F
S315600040404FF00102C3F8102207F10C07BD4680BC91
S31560004050704700BF80B483B000AF78607B689B69AF
S315600040604FF00102C3F8802107F10C07BD4680BC02
S31560004070704700BF80B483B000AF78607B689B698F
S315600040804FF00002C3F8802107F10C07BD4680BCE3
S31560004090704700BF80B483B000AF786039607B68DA
S315600040A03A68DA6607F10C07BD4680BC704700BF08
S315600040B080B483B000AF78607B68DB6E184607F12A
S315600040C00C07BD4680BC704780B582B000AF06F075
S315600040D00FF803467B604FF0010006F019F87B6825
S315600040E0184607F10807BD4680BD00BF80B582B09F
S315600040F000AF7860786806F00BF807F10807BD46F0
S3156000410080BD00BF684620F007018D4689B500AFC7
S315600041104AF6F410C2F20000FFF7EAF94FF00E001B
S31560004120FEF70AFEBD46BDE889408546704700BF7A
S31560004130684620F007018D4689B500AF4AF66820CB
S31560004140C2F20000FFF7D4F94FF01100FEF7F4FD5C
S31560004150BD46BDE889408546704700BF80B483B0E0
S3156000416000AF0346FB804EF20013CEF20003B7F9B0
S3156000417006204FEA5212F98801F01F014FF0010044
S3156000418000FA01F143F8221007F10C07BD4680BC26
S31560004190704700BF80B483B000AF0346FB804EF229
S315600041A00013CEF20003B7F906204FEA5212F988DF
S315600041B001F01F014FF0010000FA01F102F1600207
S315600041C043F8221007F10C07BD4680BC704700BF5C
S315600041D080B582B000AF42F20003CEF2040342F231
S315600041E00002CEF20402126B42F480421A634FF070
S315600041F000037B600EE07A684CF6A813C0F20103F8
S3156000420033F812301BB21846FFF7C4FF7B6803F120
S3156000421001037B607B681F2BEDD942F20003CEF26F
S31560004220040342F20002CEF20402126B22F48042D0
S315600042301A6307F10807BD4680BD00BF80B485B02C
S3156000424000AF03463960FB71FB79FB60FB681F2B8F
S3156000425000D900BEFB681F2B08D8FA684CF62813F5
S31560004260C0F2010353F822303A681A6007F1140766
S31560004270BD4680BC704700BF80B485B000AF0246C3
S315600042800B46FA71BB71FB79FB60FB681F2B00D98B
S3156000429000BEFB681F2B09D840F20003C4F2262338
S315600042A0FA68B97902F5886243F8221007F11407B3
S315600042B0BD4680BC704700BF80B487B000AF024681
S315600042C00B46FA71BB71FB797B617B691F2B00D949
S315600042D000BE7B691F2B7DD8BB79012B04D0022BD6
S315600042E060D0002B2ED074E043F20003C4F20103C9
S315600042F0D3F88830FB607B694FF0010202FA03F362
S31560004300FA6842EA0303FB6043F20003C4F2010366
S31560004310FA68C3F888207A694CF62813C0F201035C
S3156000432053F822301B683B613B6943F004033B61F1
S315600043307A694CF62813C0F2010353F822303A69C1
S315600043401A6047E043F20003C4F20103D3F88830F1
S31560004350FB607B694FF0010202FA03F36FEA030325
S31560004360FA6802EA0303FB6043F20003C4F2010346
S31560004370FA68C3F888207A694CF62813C0F20103FC
S3156000438053F822301B683B613B6943F004033B6191
S315600043907A694CF62813C0F2010353F822303A6961
S315600043A01A6017E07A694CF62813C0F2010353F8D5
S315600043B022301B683B613B6923F004033B617A69E9
S315600043C04CF62813C0F2010353F822303A691A609A
S315600043D000E000BE07F11C07BD4680BC704700BF09
S315600043E080B584B000AF0346FB71FB79FB60FB6868
S315600043F01F2B00D900BEFB681F2B1ED8FA684CF62F
S315600044002813C0F2010353F822301B68BB60FA68B8
S315600044104CF62813C0F2010353F82230BA6842F012
S3156000442008021A60FA684CF6A813C0F2010333F862
S3156000443012301BB21846FFF791FE07F11007BD4612
S3156000444080BD00BF80B485B000AF0346FB71FB79C9
S31560004450FB60FB681F2B00D900BEFB681F2B13D8BF
S31560004460FA684CF62813C0F2010353F822301B6831
S31560004470BB60FA684CF62813C0F2010353F8223089
S31560004480BA6822F008021A6007F11407BD4680BCBC
S31560004490704700BF80B584B000AF0346FB71FB79FF
S315600044A0FB60FB681F2B00D900BEFB681F2B15D86D
S315600044B043F20003C4F20103FA684FF0010101FA06
S315600044C002F2C3F88020FA684CF6A813C0F2010322
S315600044D033F812301BB21846FFF75CFE07F110077F
S315600044E0BD4680BD80B487B000AFF860B9607A60C1
S315600044F04FF000037B6119E0BA687B6913441B784F
S315600045001A46FB6882EA030303F0FF024CF6E813DF
S31560004510C0F2010353F82220FB684FEA132382EAB4
S315600045200303FB607B6903F101037B617A697B6846
S315600045309A42E1D3FB68184607F11C07BD4680BC6A
S31560004540704700BF80B582B000AF786039604FF0C9
S31560004550FF3079683A68FFF7C5FF0346184607F1EA
S315600045600807BD4680BD00BF80B58AB000AF034670
S31560004570FB714CF63872C0F2010207F10C0392E847
S315600045800300186003F1040319804FF000037B6198
S315600045900BE07A6942F62073C2F200034FF0000125
S315600045A099547B6903F101037B617B69062BF0DD1E
S315600045B040F20003C4F206234FF001021A604FF086
S315600045C00A000CF003FC40F20003C4F206231B68E9
S315600045D0012BF4D043F20003C4F200031B68B3F16D
S315600045E07E4F09D04FF0280383F31188BFF36F8F96
S315600045F0BFF34F8FBB61FEE743F20003C4F20003D3
S315600046009B6AB3F1704F09D04FF0280383F311888A
S31560004610BFF36F8FBFF34F8FFB61FEE743F200037B
S31560004620C4F200031A6B40F24003C3F200239A42BD
S3156000463009D04FF0280383F31188BFF36F8FBFF360
S315600046404F8F3B62FEE74AF6DC20C2F200004FF075
S31560004650000102F057F84AF6DC23C2F2000343F287
S315600046600002C4F200021A604AF6DC23C2F20003BA
S31560004670FA7983F8E8204FF000037B613BE07A69C2
S315600046804AF6DC23C2F200034FEA0212134403F136
S3156000469098034FF000421A607A694AF6DC23C2F248
S315600046A000034FEA0212134403F19C034FF4BE6207
S315600046B01A60796940F27063C2F200037A694FF456
S315600046C0BA6000FB02F213441A464AF6DC23C2F2D1
S315600046D0000301F10A014FEA01110B441A607A697D
S315600046E042F62073C2F200034FF0010199547B69D0
S315600046F003F101037B617B69042BC0DD4AF6DC2391
S31560004700C2F20003D3F8DC3043F000724AF6DC23D1
S31560004710C2F20003C3F8DC204FF000037B6110E0B7
S315600047207A694AF6DC23C2F200034FEA02121344A6
S3156000473003F17C034FF000021A607B6903F1010309
S315600047407B617B69012BEBDD4AF6DC23C2F2000359
S31560004750D3F8883043F000724AF6DC23C2F20003D5
S31560004760C3F8882040F20003C4F206234FF000022B
S315600047701A6543F20003C4F2000343F20002C4F276
S315600047800002126822F47C521A6040F20003C4F2FE
S3156000479006234FF00002DA6140F20003C4F20623FA
S315600047A04FF000025A6043F20003C4F2000343F282
S315600047B00002C4F20002126822F07C021A6040F223
S315600047C00003C4F206234FF00102C3F8402B43F204
S315600047D00003C4F2000343F20002C4F20002926DC9
S315600047E06FEA12426FEA02429A6540F20003C4F22F
S315600047F006234FF00002C3F8182640F20003C4F205
S3156000480006234FF00102C3F8002640F20003C4F20B
S3156000481006234FF00102C3F81C2643F20003C4F2DC
S315600048200003244A9A6143F20003C4F20003224A59
S315600048301A6240F20003C4F206234FF00102C3F885
S31560004840402707F10C031D4819464FF0060202F097
S315600048507DF907F10C03184600F066FE4AF6DC2384
S31560004860C2F2000393F8E8301F2B13D902F0D2FB93
S315600048704AF6DC23C2F2000393F8E8301F2B09D90D
S315600048804FF0280383F31188BFF36F8FBFF34F8F09
S315600048907B62FEE702F000FC00F0DEFD02F0B8F994
S315600048A0024640F26C63C2F200031A6007F1280701
S315600048B0BD4680BD74AB002050AB0020E2AA00204C
S315600048C080B586B000AF786001F090FD0346FB606E
S315600048D0FB68002B09D04FF0280383F31188BFF3E0
S315600048E06F8FBFF34F8F3B61FEE701F0BDFD03465F
S315600048F0FB60FB68002B09D04FF0280383F3118817
S31560004900BFF36F8FBFF34F8F7B61FEE740F200030B
S31560004910C4F206237A6802F00102D2B2002A02D0FB
S315600049204FF0010201E04FF00002C3F8782640F232
S315600049300003C4F206237A6802F00202002A02D05B
S315600049404FF0010201E04FF00002C3F8582640F232
S315600049500003C4F206237A6802F00402002A02D039
S315600049604FF0010201E04FF00002C3F854267B6865
S3156000497003F01803182B6CD801A252F823F000BF7D
S31560004980E5490000534A0000534A0000534A0000BC
S31560004990534A0000534A0000534A0000534A00003D
S315600049A0FF490000534A0000534A0000534A000082
S315600049B0534A0000534A0000534A0000534A00001D
S315600049C01D4A0000534A0000534A0000534A000043
S315600049D0534A0000534A0000534A0000534A0000FD
S315600049E03B4A000043F20003C4F2000343F20002B4
S315600049F0C4F20002126B22F440421A6329E043F2C9
S31560004A000003C4F2000343F20002C4F20002126B18
S31560004A1022F4404242F480421A631AE043F20003F1
S31560004A20C4F2000343F20002C4F20002126B22F4E5
S31560004A30404242F400421A630BE043F20003C4F2C0
S31560004A40000343F20002C4F20002126B42F44042D9
S31560004A501A6340F20003C4F206237A6802F0200269
S31560004A60002A02D04FF0010201E04FF00002C3F8C5
S31560004A70242640F20003C4F206237A6802F040025C
S31560004A80002A02D04FF0010201E04FF00002C3F8A5
S31560004A901C2640F20003C4F206237A6802F0800204
S31560004AA0002A02D04FF0010201E04FF00002C3F885
S31560004AB0182640F20003C4F206237A6802F40072F4
S31560004AC0002A02D04FF0010201E04FF00002C3F865
S31560004AD00C267B68DBB203F002037A6802F02002E0
S31560004AE0002A02D04FF0040201E04FF0000243EAD0
S31560004AF00203DBB2184602F043FB00F0ADFC07F19F
S31560004B001807BD4680BD00BF80B483B000AF4FF0CC
S31560004B1000037B6040F20003C4F20623D3F87836C4
S31560004B20002B03D07B6843F001037B6040F20003F7
S31560004B30C4F20623D3F85836002B03D07B6843F0C3
S31560004B4002037B6040F20003C4F20623D3F85436B6
S31560004B50002B03D07B6843F004037B6043F20003C1
S31560004B60C4F200031B6B03F440434FEA9333022BFA
S31560004B7008D0032B0BD0012B0DD17B6843F00803C3
S31560004B807B6008E07B6843F010037B6003E07B6832
S31560004B9043F018037B6040F20003C4F20623D3F8A7
S31560004BA02436002B03D07B6843F020037B6040F201
S31560004BB00003C4F20623D3F81C36002B03D07B68AF
S31560004BC043F040037B6040F20003C4F20623D3F84F
S31560004BD01836002B03D07B6843F080037B6040F27D
S31560004BE00003C4F20623D3F81036002B03D07B688B
S31560004BF043F480737B6040F20003C4F20623D3F86B
S31560004C000C36002B03D07B6843F400737B6040F264
S31560004C100003C4F20623D3F80836002B03D07B6862
S31560004C2043F480637B6040F20003C4F20623D3F84A
S31560004C300036002B03D07B6843F400637B607B689F
S31560004C40184607F10C07BD4680BC704780B58AB030
S31560004C5000AF0346FB804FF000037B6140F26C635C
S31560004C60C2F200031A6840F26463C2F200031B6872
S31560004C709A4209D14FF0280383F31188BFF36F8FEF
S31560004C80BFF34F8FBB61FEE7FB880B2B09D84FF054
S31560004C90280383F31188BFF36F8FBFF34F8FFB61D8
S31560004CA0FEE74AF6DC23C2F200031B7903F0080331
S31560004CB0002B0ED1FA8840F2EA539A4209D94FF096
S31560004CC0280383F31188BFF36F8FBFF34F8F3B6267
S31560004CD0FEE70FF079FB4AF6DC23C2F200035B6F56
S31560004CE0002B07DB4AF6DC23C2F20003D3F88430DC
S31560004CF0002B02DA6FF003037B610FF09DFB4AF62F
S31560004D00DC23C2F200031B6F002B09D04FF028038F
S31560004D1083F31188BFF36F8FBFF34F8F7B62FEE71C
S31560004D207B69002B40F00D8240F20003C4F206233B
S31560004D304FF00002C3F834260FF046FB4FF0000335
S31560004D403B61F8E14AF6DC23C2F200031A6F4AF6C9
S31560004D50DC23C2F2000302F107024FEA0212134497
S31560004D6003F108034FF000021A604AF6DC23C2F230
S31560004D7000031B7903F00403002B23D04AF6DC23DF
S31560004D80C2F20003196F4AF6DC23C2F200031A6FFF
S31560004D904AF6DC23C2F2000302F107024FEA02126E
S31560004DA0134403F108031B6843F080624AF6DC2370
S31560004DB0C2F2000301F107014FEA01110B4403F14E
S31560004DC008031A604AF6DC23C2F20003196F4AF63A
S31560004DD0DC23C2F200031A6F4AF6DC23C2F2000338
S31560004DE002F107024FEA0212134403F108031B683B
S31560004DF043F0C0424AF6DC23C2F2000301F1070128
S31560004E004FEA01110B4403F108031A604AF6DC23EA
S31560004E10C2F20003196F4AF6DC23C2F200031A6F6E
S31560004E204AF6DC23C2F2000302F107024FEA0212DD
S31560004E30134403F108031A68FB8842EA03024AF640
S31560004E40DC23C2F2000301F107014FEA01110B44B2
S31560004E5003F108031A604AF6DC23C2F20003D3F8B2
S31560004E60883043F000724AF6DC23C2F20003C3F8CE
S31560004E708820FA8840F2EC539A4202D940F2EC5309
S31560004E80FB804AF6DC23C2F20003196F40F26C63C2
S31560004E90C2F200031B681A464AF6DC23C2F200031C
S31560004EA04FEA01110B4403F17C031A604AF6DC23D6
S31560004EB0C2F200031A6F4AF6DC23C2F2000302F163
S31560004EC007024FEA0212134403F104031B68FB60F6
S31560004ED0FB6803F40063002B27D04AF6DC23C2F29A
S31560004EE00003D3F818214FEA122293F81C314FEAD7
S31560004EF0036343EA020303F101024AF6DC23C2F2CA
S31560004F00000322F07F414FEA0121D3F8180100F037
S31560004F10FF0040EA0101C3F818114FEA12624FF030
S31560004F20000141EA020283F81C21FB6803F48063F6
S31560004F30002B27D04AF6DC23C2F20003D3F81C21EB
S31560004F404FEA122293F820314FEA036343EA0203E1
S31560004F5003F101024AF6DC23C2F2000322F07F412C
S31560004F604FEA0121D3F81C0100F0FF0040EA01017D
S31560004F70C3F81C114FEA12624FF0000141EA0202C7
S31560004F8083F82021FB6803F40073002B27D04AF6D0
S31560004F90DC23C2F20003D3F820214FEA122293F8F1
S31560004FA024314FEA036343EA020303F101024AF63E
S31560004FB0DC23C2F2000322F07F414FEA0121D3F8DD
S31560004FC0200100F0FF0040EA0101C3F820114FEA1A
S31560004FD012624FF0000141EA020283F82421FB6865
S31560004FE003F48073002B27D04AF6DC23C2F2000359
S31560004FF0D3F824214FEA122293F828314FEA03634B
S3156000500043EA020303F101024AF6DC23C2F200031B
S3156000501022F07F414FEA0121D3F8240100F0FF001E
S3156000502040EA0101C3F824114FEA12624FF0000111
S3156000503041EA020283F82821FB6803F00203002B91
S3156000504027D04AF6DC23C2F20003D3F82C214FEABC
S31560005050122293F830314FEA036343EA020303F105
S3156000506001024AF6DC23C2F2000322F07F414FEAD6
S315600050700121D3F82C0100F0FF0040EA0101C3F8DA
S315600050802C114FEA12624FF0000141EA020283F8E6
S3156000509030214AF6DC23C2F20003D3F828214FEA16
S315600050A0122293F82C314FEA036343EA02031A464D
S315600050B0FB684FEAD30303F00F031A444AF6DC2376
S315600050C0C2F2000322F07F414FEA0121D3F82801A2
S315600050D000F0FF0040EA0101C3F828114FEA1262AE
S315600050E04FF0000141EA020283F82C214AF6DC23E4
S315600050F0C2F200031A6F4AF6DC23C2F2000302F121
S3156000510007024FEA0212134403F104034FF0004210
S315600051101A604AF6DC23C2F200031B6F03F1010337
S3156000512003F001024AF6DC23C2F200031A673B6908
S3156000513003F101033B613B69012B7FF603AE0FF080
S315600051407BF97B69002B19D1FB887B6140F20003F8
S31560005150C4F206234FF00102C3F8342643F200037B
S31560005160C4F200034FF001029A6001F051FD02465D
S3156000517040F26C63C2F200031A6002E04FF0000373
S315600051807B617B69184607F12807BD4680BD00BF75
S3156000519080B582B000AF01F0A5F94AF6DC23C2F211
S315600051A00003D3F894204AF6DC23C2F200034FEAE8
S315600051B00212134403F198031B68002B03DA4FF0C5
S315600051C000033B6018E04AF6DC23C2F20003D3F822
S315600051D094204AF6DC23C2F200034FEA021213441B
S315600051E003F198031B684FEA13434FEA83434FEA80
S315600051F093437B607B683B603B68184607F1080712
S31560005200BD4680BD90B583B000AF4FF00003FB8014
S3156000521001F068F94AF6DC23C2F20003D3F8942061
S315600052204AF6DC23C2F200034FEA0212134403F18A
S3156000523098031B68002B56DB4AF6DC23C2F2000398
S31560005240D3F894204AF6DC23C2F200034FEA021236
S31560005250134403F198031B684FEA13439BB24FEA6A
S3156000526083434FEA9343FB80FB88A3F10403FB80EF
S31560005270FB88B3F5BA6F02D96FF0040334E040F2ED
S315600052806C63C2F200031B68184601F07DFD4AF6A6
S31560005290DC23C2F20003D3F894204AF6DC23C2F280
S315600052A0000302F10A024FEA021213441B681A460F
S315600052B040F26C63C2F200031A604AF6DC23C2F263
S315600052C00003D3F8944001F0A3FC03461A464AF65D
S315600052D0DC23C2F2000304F10A014FEA01110B4418
S315600052E01A6000F0B9FCFB88184607F10C07BD464A
S315600052F090BD00BF80B584B000AF786039604FF074
S3156000530000033B814FF00003FB723B68B3F1FF3F44
S3156000531009D03B68002B06D03B68002B06D03B6863
S31560005320B3F1807F02D84FF0010301E04FF0000334
S31560005330002B09D14FF0280383F31188BFF36F8FD9
S31560005340BFF34F8FFB60FEE701F0CCF83B68B3F12B
S31560005350FF3F18D03B68002B04D14FF0000001F0EE
S3156000536013F911E0386801F00FF90DE03B68B3F10D
S31560005370FF3F09D001F030F90346002B04D14FF00E
S315600053800103FB7200E000BF4AF6DC23C2F20003B1
S31560005390D3F894204AF6DC23C2F200034FEA0212E5
S315600053A0134403F198031B68002B03DA97F90B305B
S315600053B0002BDBD097F90B30002B2ED14AF6DC237D
S315600053C0C2F20003D3F894204AF6DC23C2F200034B
S315600053D04FEA0212134403F198031B684FEA134322
S315600053E09BB24FEA83434FEA93433B813B89A3F1E8
S315600053F004033B814AF6DC23C2F20003D3F894200F
S315600054004AF6DC23C2F2000302F10A024FEA0212F4
S3156000541013441B681A467B681A603B89184607F175
S315600054201007BD4680BD00BF80B582B000AF01F0F9
S315600054306BFE03467B607B68012B06D101F07CFE28
S3156000544003467A6842EA03037B607B68184607F185
S315600054500807BD4680BD00BF80B584B000AF01F0CF
S315600054602BFEFFF7E1FF03463B603B6803F0010359
S31560005470DBB2002B51D000F0B9FF03467B607B683E
S31560005480002B13D07B68DAB24AF6DC23C2F2000343
S315600054905A717B68002B09D04FF0280383F311887B
S315600054A0BFF36F8FBFF34F8FBB60FEE700F0DCFF8B
S315600054B003467B607B68002B13D07B68DAB24AF6C2
S315600054C0DC23C2F200035A717B68002B09D04FF0CF
S315600054D0280383F31188BFF36F8FBFF34F8FFB6091
S315600054E0FEE740F20003C4F206233A6802F00202C5
S315600054F0002A02D04FF0010201E04FF00002C3F82B
